:020000040800F2
:1000000000000220AD5A0008B9590008C55900087F
:10001000CB590008D1590008D7590008000000004A
:10002000000000000000000000000000DD59000892
:10003000E959000800000000F5590008015A0008BD
:10004000FD5A0008FD5A0008FD5A0008FD5A000834
:10005000FD5A0008FD5A0008FD5A0008FD5A000824
:10006000FD5A0008FD5A0008FD5A0008FD5A000814
:10007000FD5A0008FD5A0008FD5A0008FD5A000804
:10008000FD5A0008FD5A0008FD5A0008FD5A0008F4
:10009000FD5A0008FD5A0008FD5A0008FD5A0008E4
:1000A000FD5A0008FD5A0008FD5A0008FD5A0008D4
:1000B000FD5A0008FD5A0008FD5A0008FD5A0008C4
:1000C000FD5A0008FD5A0008FD5A0008FD5A0008B4
:1000D000FD5A0008FD5A0008FD5A0008FD5A0008A4
:1000E000FD5A0008FD5A000800000000FD5A0008F3
:1000F000FD5A0008FD5A0008FD5A0008FD5A000884
:10010000FD5A0008FD5A0008FD5A0008FD5A000873
:10011000FD5A0008FD5A0008FD5A0008FD5A000863
:10012000FD5A0008FD5A0008FD5A0008FD5A000853
:10013000FD5A0008FD5A0008FD5A0008FD5A000843
:1001400000000000000000000000000000000000AF
:10015000FD5A0008FD5A0008FD5A0008FD5A000823
:10016000FD5A0008FD5A0008FD5A0008FD5A000813
:10017000FD5A0008FD5A0008FD5A00080000000062
:10018000FD5A0008FD5A0008FD5A0008FD5A0008F3
:10019000FD5A0008FD5A0008FD5A0008FD5A0008E3
:1001A000FD5A0008FD5A0008FD5A0008FD5A0008D3
:1001B000FD5A0008FD5A0008FD5A0008FD5A0008C3
:1001C000FD5A0008FD5A0008FD5A0008FD5A0008B3
:1001D000FD5A0008FD5A0008FD5A0008FD5A0008A3
:1001E000FD5A0008FD5A0008FD5A0008FD5A000893
:1001F000FD5A0008FD5A0008FD5A0008FD5A000883
:10020000FD5A0008FD5A0008FD5A0008FD5A000872
:10021000FD5A0008FD5A0008FD5A0008FD5A000862
:10022000FD5A0008FD5A0008FD5A000800000000B1
:10023000FD5A0008FD5A000800000000FD5A0008A1
:10024000FD5A0008FD5A0008FD5A0008FD5A000832
:10025000FD5A0008FD5A0008FD5A0008FD5A000822
:10026000FD5A0008FD5A0008FD5A0008FD5A000812
:10027000FD5A0008FD5A0008FD5A00080000000061
:10028000FD5A000800000000FD5A000800000000B0
:0802900000000000FD5A000807
:1002980010B5054C237833B9044B13B10448AFF3B8
:1002A80000800123237010BDD00000200000000052
:1002B800585B000808B5034B1BB103490348AFF36B
:1002C800008008BD00000000D4000020585B000832
:1002D80080F0004002E000BF81F0004142001FBFF3
:1002E8005FEA410392EA030F7FEA226C7FEA236CFC
:1002F8006AD04FEA1262D2EB1363C1BFD2184140F1
:1003080048404140B8BF5B42192B88BF704710F086
:10031800004F40F4000020F07F4018BF404211F029
:10032800004F41F4000121F07F4118BF494292EA91
:10033800030F3FD0A2F1010241FA03FC10EB0C00BD
:10034800C3F1200301FA03F100F0004302D549424A
:1003580060EB4000B0F5000F13D3B0F1807F06D3F7
:1003680040084FEA310102F10102FE2A51D2B1F1EF
:10037800004F40EBC25008BF20F0010040EA0300E4
:100388007047490040EB000010F4000FA2F1010291
:10039800EDD1B0FA80FCACF1080CB2EB0C0200FA1B
:1003A8000CF0AABF00EBC25052421843BCBFD04069
:1003B8001843704792F0000F81F4000106BF80F4E3
:1003C80000000132013BB5E74FEA41037FEA226CA6
:1003D80018BF7FEA236C21D092EA030F04D092F071
:1003E800000F08BF0846704790EA010F1CBF0020A5
:1003F800704712F07F4F04D1400028BF40F0004002
:10040800704712F100723CBF00F50000704700F021
:10041800004343F0FE4040F4000070477FEA226248
:1004280016BF08467FEA23630146420206BF5FEA19
:10043800412390EA010F40F4800070474FF0000319
:1004480004E000BF10F0004348BF40425FEA000CE0
:1004580008BF704743F0964301464FF000001CE088
:1004680050EA010208BF70474FF000030AE000BFDE
:1004780050EA010208BF704711F0004302D540421C
:1004880061EB41015FEA010C02BF8446014600208E
:1004980043F0B64308BFA3F18053A3F50003BCFAA9
:1004A8008CF2083AA3EBC25310DB01FA02FC634456
:1004B80000FA02FCC2F12002BCF1004F20FA02F25D
:1004C80043EB020008BF20F00100704702F1200250
:1004D80001FA02FCC2F1200250EA4C0021FA02F2B1
:1004E80043EB020008BF20EADC7070474FF0FF0CB6
:1004F8001CEAD0521EBF1CEAD15392EA0C0F93EAB1
:100508000C0F6FD01A4480EA010C400218BF5FEA52
:1005180041211ED04FF0006343EA501043EA5111C5
:10052800A0FB01310CF00040B1F5000F3EBF4900BF
:1005380041EAD3715B0040EA010062F17F02FD2AC3
:100548001DD8B3F1004F40EBC25008BF20F00100A6
:10055800704790F0000F0CF0004C08BF49024CEABD
:10056800502040EA51207F3AC2BFD2F1FF0340EA4F
:10057800C250704740F400004FF00003013A5DDCC0
:1005880012F1190FDCBF00F000407047C2F1000201
:10059800410021FA02F1C2F1200200FA02FC5FEAEE
:1005A800310040F1000053EA4C0308BF20EADC7038
:1005B800704792F0000F00F0004C02BF400010F4AA
:1005C800000F013AF9D040EA0C0093F0000F01F057
:1005D800004C02BF490011F4000F013BF9D041EA79
:1005E8000C018FE70CEAD15392EA0C0F18BF93EA7B
:1005F8000C0F0AD030F0004C18BF31F0004CD8D1A5
:1006080080EA010000F00040704790F0000F17BF2B
:1006180090F0004F084691F0000F91F0004F14D071
:1006280092EA0C0F01D142020FD193EA0C0F03D1C9
:100638004B0218BF084608D180EA010000F00040CC
:1006480040F0FE4040F40000704740F0FE4040F4A7
:10065800400070474FF0FF0C1CEAD0521EBF1CEA46
:10066800D15392EA0C0F93EA0C0F69D0A2EB030264
:1006780080EA010C49024FEA402037D04FF08053FE
:1006880043EA111143EA10130CF000408B4238BFC3
:100698005B0042F17D024FF4000C8B4224BF5B1AD1
:1006A80040EA0C00B3EB510F24BFA3EB510340EA1F
:1006B8005C00B3EB910F24BFA3EB910340EA9C00CD
:1006C800B3EBD10F24BFA3EBD10340EADC001B013D
:1006D80018BF5FEA1C1CE0D1FD2A3FF650AF8B42E1
:1006E80040EBC25008BF20F0010070470CF0004CEE
:1006F8004CEA50207F32C2BFD2F1FF0340EAC25019
:10070800704740F400004FF00003013A37E792F0D9
:10071800000F00F0004C02BF400010F4000F013A37
:10072800F9D040EA0C0093F0000F01F0004C02BF32
:10073800490011F4000F013BF9D041EA0C0195E79B
:100748000CEAD15392EA0C0F08D142027FF47DAF34
:1007580093EA0C0F7FF470AF084676E793EA0C0F24
:1007680004D14B023FF44CAF08466EE730F0004C22
:1007780018BF31F0004CCAD130F000427FF45CAFB2
:1007880031F000437FF43CAF5FE700BF42000ED278
:10079800B2F1FE4F0BD34FF09E03B3EB126209D4B4
:1007A8004FEA002343F0004323FA02F070474FF06A
:1007B8000000704712F1610F01D1420202D14FF0DF
:1007C800FF3070474FF00000704700BF53B94AB977
:1007D800002908BF00281CBF4FF0FF314FF0FF3041
:1007E80000F074B9ADF1080C6DE904CE00F006F81C
:1007F800DDF804E0DDE9022304B070472DE9F04795
:10080800089E04468846002B40F085808A4215469B
:1008180048D9B2FA82F24AB1C2F1200701FA02F3CA
:1008280020FA07F7954047EA030894404FEA154E27
:10083800230CB8FBFEF71FFA85FC0EFB178843EA6A
:10084800084307FB0CF1994209D9EB1807F1FF306F
:1008580080F0E380994240F2E080023F2B445B1A2B
:10086800A4B2B3FBFEF00EFB103344EA034400FBD2
:100878000CFCA44509D92C1900F1FF3380F0CB807A
:10088800A44540F2C88002382C4440EA0740A4EB53
:100898000C0400271EB1D4400023C6E900433946A2
:1008A800BDE8F087002A53D0B2FA82F2002A40F05D
:1008B800B680491B4FEA154E1FFA85F80127B1FB90
:1008C800FEFC230C0EFB1C1143EA014308FB0CF150
:1008D800994207D9EB180CF1FF3002D2994200F285
:1008E800EC808446591AA3B2B1FBFEF00EFB10143B
:1008F80043EA044408FB00F8A04507D92C1900F185
:10090800FF3302D2A04500F2DC801846A4EB0804AD
:1009180040EA0C40BEE78B4208D9002E78D0002769
:10092800C6E9000138463946BDE8F087B3FA83F7CF
:100938007FB98B4202D3824200F2BD80841A61EBF8
:10094800030301209846002EA9D0C6E90048A6E76F
:10095800FFDEC7F12005BB4022FA05FC4CEA030C78
:1009680001FA07F420FA05F821FA05F34FEA1C4EBC
:1009780048EA0404B3FBFEF9210C0EFB19331FFAF5
:100988008CF841EA034309FB08FA9A4502FA07F290
:1009980000FA07F10BD91CEB030309F1FF3080F0D3
:1009A80088809A4540F28580A9F102096344A3EB47
:1009B8000A03A4B2B3FBFEF00EFB103344EA03446F
:1009C80000FB08F8A04508D91CEB040400F1FF332C
:1009D8006BD2A04569D90238644440EA0940A4EBC7
:1009E8000804A0FB02894C45C6464B4654D351D057
:1009F800002E69D0B1EB0E0264EB030404FA05F58E
:100A080022FA07F3FC401D43C6E90054002746E7D5
:100A18003746304643E7184637E707461FE7C2F12F
:100A2800200320FA03F7954001FA02F021FA03F3B4
:100A38004FEA154E3843010CB3FBFEF71FFA85F851
:100A48000EFB173341EA034107FB08F38B4204FA14
:100A580002F407D9691807F1FF3C28D28B4226D93E
:100A6800023F2944CB1A81B2B3FBFEF00EFB1033D0
:100A780041EA034100FB08F38B4207D9691800F1EA
:100A8800FF3C10D28B420ED902382944C91A40EAD9
:100A9800074714E74145ABD2B8EB020E69EB0C02ED
:100AA80001381346A4E76046F0E7184695E767461D
:100AB800D8E781467BE7384645E7ACF1020C2B4482
:100AC80010E702382C4421E73746E8E6704700BFB4
:100AD80080B500AF032000F03FF9002000F00AF8CD
:100AE8000346002B01D0012302E004F035FE002369
:100AF800184680BD80B582B000AF7860124B1A6886
:100B0800124B1B7819464FF47A73B3FBF1F3B2FB1F
:100B1800F3F3184600F045F90346002B01D00123F2
:100B28000EE07B680F2B0AD8002279684FF0FF305F
:100B380000F01DF9064A7B681360002300E00123DA
:100B480018460837BD4680BD080000200400002074
:100B58000000002080B400AF054B1B781A46054BF7
:100B68001B681344034A136000BFBD4680BC70472E
:100B780004000020EC00002080B400AF024B1B688A
:100B88001846BD4680BC7047EC00002080B584B094
:100B980000AF7860FFF7F0FFB8607B68FB60FB6828
:100BA800B3F1FF3F05D0094B1B781A46FB68134485
:100BB800FB6000BFFFF7E0FF0246BB68D31AFA6884
:100BC8009A42F7D800BF1037BD4680BD0400002008
:100BD80080B483B000AF7860064B5B6823F4600292
:100BE80004497B6813434B6000BF0C37BD4680BC8B
:100BF800704700BF0004005880B485B000AF78602B
:100C08007B6803F00703FB600B4BDB68BB60BA68CB
:100C18004FF6FF031340BB60FB681A02BB681A4318
:100C2800064B1343BB60044ABB68D36000BF14374C
:100C3800BD4680BC704700BF00ED00E00000FA052B
:100C480080B400AF044BDB681B0A03F007031846A7
:100C5800BD4680BC704700BF00ED00E080B483B0A3
:100C680000AF03463960FB80B7F90630002B0ADB7A
:100C78003B68DAB20C49B7F906301201D2B20B441C
:100C880083F800230AE03B68DAB20849FB8803F0DE
:100C98000F03043B1201D2B20B441A7600BF0C3783
:100CA800BD4680BC704700BF00E100E000ED00E0F9
:100CB80080B489B000AFF860B9607A60FB6803F06F
:100CC8000703FB61FB69C3F10703042B28BF042357
:100CD800BB61FB690433062B02D9FB69033B00E0C7
:100CE80000237B614FF0FF32BB6902FA03F3DA435A
:100CF800BB681A407B699A404FF0FF317B6901FA63
:100D080003F3D9437B680B40134318462437BD4689
:100D180080BC704780B582B000AF78607B68013BCB
:100D2800B3F1807F01D301230FE00A4A7B68013BBE
:100D380053600F214FF0FF30FFF790FF054B002263
:100D48009A60044B07221A60002318460837BD46EC
:100D580080BD00BF10E000E080B582B000AF7860D1
:100D68007868FFF749FF00BF0837BD4680BD80B5EA
:100D780086B000AF0346B9607A60FB81FFF760FF79
:100D880078617A68B9687869FFF792FF0246B7F91F
:100D98000E3011461846FFF761FF00BF1837BD46F1
:100DA80080BD80B582B000AF78607868FFF7B2FF89
:100DB800034618460837BD4680BD000080B483B09E
:100DC80000AF78607B68042B06D1094B1B68084A82
:100DD80043F00403136005E0054B1B68044A23F045
:100DE8000403136000BF0C37BD4680BC704700BFCA
:100DF80010E000E080B500AF00F002F800BF80BD51
:100E080080B400AF00BFBD4680BC704780B584B0D9
:100E180000AF78607B68002B01D10123CBE07B68B1
:100E280093F85130DBB2002B02D1786804F0DAFC79
:100E38007B68232283F85120614BD3F8F430604A51
:100E480043F00203C2F8F4305D4BD3F8F43003F0FA
:100E58000203BB60BB687B681B7A002B03D10020B0
:100E6800FFF7B6FE03E04FF40000FFF7B1FE7B6822
:100E78001B6803F580531A687B681B6842F00102FF
:100E880003F580531A60FFF777FEF86010E0FFF76C
:100E980073FE0246FB68D31AB3F5FA7F08D97B685C
:100EA80004225A657B68E02283F85120012382E0FE
:100EB8007B681B6803F580531B6803F00103002B54
:100EC800E5D1786800F0C6FA01F03EFC02463D4BD9
:100ED800A3FB02239A0C7B681B68013AC3F8DC2049
:100EE800786800F019FA7B681B6803F588531B685B
:100EF80023F4E0127B681B6842F4002203F5885350
:100F08001A607B685B6903F00303002B08D07B68D9
:100F180001225A657B68E02283F8512001234AE0C8
:100F28007B681A6841F2081313441A68264B134069
:100F38007A6852695200796809681A4341F20813BD
:100F48000B441A60786800F0DDFA786800F038FB26
:100F58007B685B6805331B781B027A685268043229
:100F680012781A437B681B68C3F800237B685B68A8
:100F780003331B781A067B685B6802331B781B04F3
:100F88001A437B685B6801331B781B0213437A683A
:100F9800526812781A437B681B68C3F804237B687D
:100FA80000225A657B68102283F851207B68102242
:100FB80083F85220002318461037BD4680BD00BF75
:100FC8000044025883DE1B430180FFFF80B485B0D4
:100FD80000AF786039603B689A683B681B681343C8
:100FE8003A681279D20613433A68127BD205134342
:100FF8003A68527B920513433A68927B5205134331
:101008003A68D27B120513433A68127C002A02D14F
:101018004FF4002200E0002213433A68527C002A71
:1010280002D14FF4003200E0002213433A68927C68
:1010380012041A433B685B691A433B689B69134374
:101048003A68127F120313433A68527FD20213435D
:101058003A68927F002A02D14FF4806200E00022B1
:1010680013433A68D27F520213433A6892F8202019
:10107800002A02D14FF4807200E000221A433B6834
:101088005B6A13433A6892F8282012011A433B68B6
:10109800DB6A1343FB607B681B681A68574B134075
:1010A8007A681268F9680B4313603B68DB6B5B0670
:1010B8003A6892F83820120613433A6892F83020BA
:1010C800920413433A6892F83120520413433A6861
:1010D80092F83220002A02D14FF4803200E0002238
:1010E8001A433B685B6B1343FB607B681B685A6859
:1010F800434B13407A681268F9680B4353603B68A6
:1011080093F840301B021A463B685B6C1343FB6044
:101118007B681B68DA683B4B13407A681268F96889
:101128000B43D3603B6893F854305B001A463B6826
:101138001B6D13433A6892F84C20002A01D1802293
:1011480000E000221A433B689B6C1B041343FB60BE
:101158007B681B681A6F4FF60D7313407A68126824
:10116800F9680B4313673B6893F856301A463B6897
:1011780093F855305B001343FB607B681B68D3F81A
:10118800903023F003017B681B68FA680A43C3F8B0
:1011980090207B681B68D3F8003D23F072013B6800
:1011A8009A6D7B681B680A43C3F8002D3B68DB6DAA
:1011B8003A6892F86020002A01D1402200E000221B
:1011C80013433A6892F86120120113433A6892F87F
:1011D8006220D2001343FB607B681B68D3F8303D64
:1011E80023F07B017B681B68FA680A43C3F8302D3B
:1011F80000BF1437BD4680BC704700BF8380040021
:101208000080F8C0F0FEFFFF80B485B000AF7860C2
:1012180039607B681B6803F580531A68394B1340A3
:101228003A681268796809681A4301F580531A60A8
:101238003B681B791B031A463B689B6813433A6853
:10124800127BD2031343FB607B681A6841F20403E4
:1012580013441A682C4B13407A681168FA681A43C9
:1012680041F204030B441A603B685B7B1B041A467B
:101278003B681B6A1343FB607B681B6803F5885354
:101288001A68224B13407A681168FA681A4301F504
:1012980088531A603B681B693A68127D1201134330
:1012A8003A68527F12031343FB607B681A6841F265
:1012B800041313441A68164B13407A681168FA68C5
:1012C8001A4341F204130B441A603B681B7FDB0787
:1012D8001A463B689B691343FB607B681A6841F2B6
:1012E800081313441A680B4B13407A681168FA689C
:1012F8001A4341F208130B441A6000BF1437BD4665
:1013080080BC7047FD87FFFFFE2FFFFF00C0FEFF78
:10131800EFEFC0FFFFFFC07F80B5A4B000AF7860DB
:10132800012387F83B3000233B65002387F84930C9
:10133800002387F84B30012387F83030012387F8E2
:101348005E30012387F83A30002387F854300123B0
:1013580087F88C304FF400537B64002387F864309F
:101368000023BB66002387F88D30002387F88E3072
:101378004FF4C3633B66002387F8383000237B6350
:10138800012387F83D30002387F83E30002387F893
:1013980048300023FB6700237B670023BB650023DD
:1013A80087F86C30002387F88230012387F84A30A9
:1013B8002023C7F88830012387F84C30002387F8AA
:1013C8005D304FF04053FB624FF480433B64002391
:1013D80087F839300223C7F88430002387F8803033
:1013E800002387F88130002387F85C30012387F8D1
:1013F8003C3000233B67012387F8783007F12C0342
:1014080019467868FFF7E2FD01233B7301233B612E
:101418000023BB60002387F8243000237B7500235A
:101428003B754FF400133B6200233B774FF40013E6
:10143800BB61002387F825304FF40673BB6207F1C0
:10144800080319467868FFF7DFFE00BF9037BD46EE
:1014580080BD000080B584B000AF78607B681B68F1
:10146800D3F80032FB60FB6823F47063FB6001F083
:101478006BF9B860BB681E4A934208D9BB681D4A1D
:10148800934204D8FB6843F40073FB6027E0BB6811
:10149800184A934208D9BB68174A934204D8FB6894
:1014A80043F44073FB601AE0BB68134A934203D9C4
:1014B800BB68124A934211D9BB68104A934208D9B3
:1014C800BB680F4A934204D8FB6843F48073FB60FF
:1014D80005E0FB6843F48063FB6000E000BF7B68C5
:1014E8001B68FA68C3F8002200BF1037BD4680BDEC
:1014F800FF2C3101BF0E1602FF869303FFE0F505AE
:101508007FD1F00880B485B000AF78600023FB601D
:1015180035E07B68D968FA6813465B001344DB0042
:101528000B44BB60BB6800221A7000225A7000226C
:101538009A700022DA70BB6800221A7100225A7170
:1015480000229A710022DA71BB6800221A72002206
:101558005A7200229A720022DA72BB6800221A7349
:1015680000225A7300229A730022DA73B9687B68E2
:10157800FA68063243F82210FB680133FB60FB6807
:10158800032BC6D97B6800229A627B681A6841F2ED
:101598002C13134403221A607B68D9687B681A6885
:1015A80041F21413134419607B68DA687B681B687E
:1015B80003F589531A6000BF1437BD4680BC7047D5
:1015C80080B485B000AF78600023FB6048E07B689A
:1015D8001969FA6813465B001344DB000B44BB60CF
:1015E800BB6800221A7000225A7000229A700022EA
:1015F800DA70BB6800221A7100225A7100229A71AF
:101608000022DA71BB6800221A7200225A72002284
:101618009A720022DA72BB6800221A7300225A7387
:1016280000229A730022DA73BB6800221A7400221F
:101638005A7400229A740022DA74BB6800221A7560
:1016480000225A7500229A750022DA75BA687968FC
:10165800FB680A339B000B445A60FB680133FB604C
:10166800FB68032BB3D97B680022DA637B6800220E
:101678001A647B6800225A647B680022DA647B68FB
:1016880000229A647B681A6841F2301313440322DB
:101698001A607B6819697B681A6841F21C13134445
:1016A80019607B681B691A467B681968483241F2E1
:1016B80028130B441A6000BF1437BD4680BC70471E
:1016C80080B489B000AF786039600023FB610023E3
:1016D8007B6100233B610023BB618B4BFB600023D4
:1016E800FB6196E10122FB6902FA03F37B613B6827
:1016F8001B687A6913403B613A697B699A4240F0FA
:1017080085813B685B68022B03D03B685B68122BC2
:1017180023D1FB69DA087B68083253F82230BB61B1
:10172800FB6903F007039B000F2202FA03F3DB4374
:10173800BA691340BB613B681A69FB6903F0070388
:101748009B0002FA03F3BA691343BB61FB69DA0829
:101758007B680832B96943F822107B681B68BB6153
:10176800FB695B00032202FA03F3DB43BA69134007
:10177800BB613B685B6803F00302FB695B0002FA2C
:1017880003F3BA691343BB617B68BA691A603B68A3
:101798005B68012B0BD03B685B68022B07D03B686A
:1017A8005B68112B03D03B685B68122B30D17B68D8
:1017B8009B68BB61FB695B00032202FA03F3DB430E
:1017C800BA691340BB613B68DA68FB695B0002FADF
:1017D80003F3BA691343BB617B68BA699A607B6893
:1017E8005B68BB610122FB6902FA03F3DB43BA6958
:1017F8001340BB613B685B681B0903F00102FB698E
:1018080002FA03F3BA691343BB617B68BA695A6089
:101818007B68DB68BB61FB695B00032202FA03F3A8
:10182800DB43BA691340BB613B689A68FB695B009C
:1018380002FA03F3BA691343BB617B68BA69DA60D9
:101848003B685B6803F08053002B00F0DF802F4B70
:10185800D3F8F4302D4A43F00203C2F8F4302B4B8E
:10186800D3F8F43003F00203BB60BB68284AFB6975
:101878009B08023352F82330BB61FB6903F0030372
:101888009B000F2202FA03F3DB43BA691340BB61E2
:101898007B68204A934251D07B681F4A934231D0DB
:1018A8007B681E4A93422BD07B681D4A934225D001
:1018B8007B681C4A93421FD07B681B4A934219D00D
:1018C8007B681A4A934213D07B68194A93420DD019
:1018D8007B68184A934207D07B68174A934201D124
:1018E80009232CE00A232AE0082328E0072326E01E
:1018F800062324E0052322E0042320E003231EE03E
:1019080002231CE001231AE080000058004402581A
:101918000004005800000258000402580008025849
:10192800000C0258001002580014025800180258FF
:10193800001C025800200258002402580023FA69AB
:1019480002F0030292009340BA691343BB61354920
:10195800FB699B080233BA6941F82320FB681B68BE
:10196800BB613B69DB43BA691340BB613B685B6899
:1019780003F48033002B03D0BA693B691343BB617E
:10198800FB68BA691A60FB685B68BB613B69DB434B
:10199800BA691340BB613B685B6803F40033002BF2
:1019A80003D0BA693B691343BB61FB68BA695A60E3
:1019B8004FF0B0431B68BB613B69DB43BA69134016
:1019C800BB613B685B6803F48013002B03D0BA69E2
:1019D8003B691343BB614FF0B042BB6913604FF0E2
:1019E800B0435B68BB613B69DB43BA691340BB61C9
:1019F8003B685B6803F40013002B03D0BA693B69AA
:101A08001343BB614FF0B042BB695360FB690133BC
:101A1800FB61FB690F2B7FF665AE00BF2437BD461F
:101A280080BC70470004005880B483B000AF786071
:101A38000B467B8013467B707B78002B03D07B683A
:101A48007A881A8302E07B687A885A8300BF0C3749
:101A5800BD4680BC7047000080B58EB000AF78608E
:101A680000237B637B681B6803F00103002B00F0F5
:101A78008680934B1B6903F03803102B0BD0904BD7
:101A88001B6903F03803182B11D18D4B9B6A03F0A7
:101A98000303022B0BD18A4B1B6803F40033002B82
:101AA8006CD07B685B68002B68D1012364E37B689A
:101AB8005B68B3F5803F06D1814B1B68804A43F4CD
:101AC800803313602EE07B685B68002B0CD17C4B65
:101AD8001B687B4A23F480331360794B1B68784A70
:101AE80023F4802313601DE07B685B68B3F5A02FA7
:101AF8000CD1734B1B68724A43F480231360704BFC
:101B08001B686F4A43F4803313600BE06C4B1B680F
:101B18006B4A23F480331360694B1B68684A23F4CB
:101B2800802313607B685B68002B13D0FFF724F8D1
:101B3800786308E0FFF720F802467B6BD31A642B22
:101B480001D9032318E35E4B1B6803F40033002B11
:101B5800F0D014E0FFF710F8786308E0FFF70CF80E
:101B680002467B6BD31A642B01D9032304E3544B3D
:101B78001B6803F40033002BF0D100E000BF7B6842
:101B88001B6803F00203002B00F0A2804C4B1B697A
:101B980003F03803002B0BD0494B1B6903F03803C3
:101BA800182B43D1464B9B6A03F00303002B3DD10E
:101BB800434B1B6803F00403002B05D07B68DB68EC
:101BC800002B01D10123D7E23D4B1B6823F01902FA
:101BD8007B68DB683A4913430B60FEF7CDFF7863F7
:101BE80008E0FEF7C9FF02467B6BD31A022B01D926
:101BF8000323C1E2324B1B6803F00403002BF0D02F
:101C08002F4B5B6823F47C327B6819694FF47C3373
:101C18003B633B6B93FAA3F3FB62FB6AB3FA83F370
:101C280001FA03F3264913434B6051E07B68DB68F4
:101C3800002B31D0224B1B6823F019027B68DB682C
:101C48001F4913430B60FEF797FF786308E0FEF720
:101C580093FF02467B6BD31A022B01D903238BE235
:101C6800174B1B6803F00403002BF0D0144B5B6880
:101C780023F47C327B6819694FF47C33BB62BB6AFE
:101C880093FAA3F37B627B6AB3FA83F301FA03F353
:101C98000B4913434B601BE0094B1B68084A23F0B0
:101CA80001031360FEF768FF78630BE0FEF764FF3B
:101CB80002467B6BD31A022B04D903235CE200BFD4
:101CC80000440258A04B1B6803F00403002BEDD11D
:101CD8007B681B6803F01003002B7FD09A4B1B69AD
:101CE80003F03803082B0BD0974B1B6903F038031C
:101CF800182B27D1944B9B6A03F00303012B21D1A6
:101D0800914B1B6803F48073002B05D07B68DB695B
:101D1800802B01D001232FE28B4B5B6823F0F84224
:101D28007B68196A4FF0F8433B623B6A93FAA3F366
:101D3800FB61FB69B3FA83F301FA03F382491343A6
:101D48004B604BE07B68DB69002B2ED07E4B1B6819
:101D58007D4A43F080031360FEF70EFF786308E0C6
:101D6800FEF70AFF02467B6BD31A022B01D9032325
:101D780002E2754B1B6803F48073002BF0D0724BA2
:101D88005B6823F0F8427B68196A4FF0F843BB613F
:101D9800BB6993FAA3F37B617B69B3FA83F301FA16
:101DA80003F3694913434B6018E0674B1B68664AA5
:101DB80023F080031360FEF7DFFE786308E0FEF788
:101DC800DBFE02467B6BD31A022B01D90323D3E136
:101DD8005D4B1B6803F48073002BF0D17B681B6894
:101DE80003F00803002B36D07B685B69002B19D001
:101DF800554B5B6F544A43F001035367FEF7BCFE33
:101E0800786308E0FEF7B8FE02467B6BD31A022B14
:101E180001D90323B0E14C4B5B6F03F00203002BA5
:101E2800F0D018E0484B5B6F474A23F00103536733
:101E3800FEF7A2FE786308E0FEF79EFE02467B6B83
:101E4800D31A022B01D9032396E13F4B5B6F03F0B2
:101E58000203002BF0D17B681B6803F02003002BE2
:101E680036D07B689B69002B19D0374B1B68364AE4
:101E780043F480531360FEF77FFE786308E0FEF7B3
:101E88007BFE02467B6BD31A022B01D9032373E135
:101E98002D4B1B6803F40053002BF0D018E02A4B9D
:101EA8001B68294A23F480531360FEF765FE7863A4
:101EB80008E0FEF761FE02467B6BD31A022B01D9BC
:101EC800032359E1204B1B6803F40053002BF0D186
:101ED8007B681B6803F00403002B00F085801B4B14
:101EE8001B681A4A43F480731360FEF745FE786353
:101EF80008E0FEF741FE02467B6BD31A642B01D93A
:101F0800032339E1114B1B6803F48073002BF0D0D5
:101F18007B689B68012B06D10B4B1B6F0A4A43F069
:101F28000103136731E07B689B68002B10D1064BD7
:101F38001B6F054A23F001031367034B1B6F024A0B
:101F480023F00403136720E00044025800480258B5
:101F58007B689B68052B0CD1894B1B6F884A43F023
:101F680004031367864B1B6F854A43F0010313670D
:101F78000BE0834B1B6F824A23F001031367804BEE
:101F88001B6F7F4A23F0040313677B689B68002B51
:101F980015D0FEF7F1FD78630AE0FEF7EDFD024685
:101FA8007B6BD31A41F28832934201D90323E3E0D1
:101FB800734B1B6F03F00203002BEED014E0FEF707
:101FC800DBFD78630AE0FEF7D7FD02467B6BD31A88
:101FD80041F28832934201D90323CDE0684B1B6F4D
:101FE80003F00203002BEED17B685B6A002B00F044
:101FF800C280634B1B6903F03803182B00F0B980CB
:102008007B685B6A022B40F09A805D4B1B685C4AD8
:1020180023F080731360FEF7AFFD786308E0FEF7E6
:10202800ABFD02467B6BD31A022B01D90323A3E035
:10203800534B1B6803F00073002BF0D1504B9A6A86
:10204800504B13407A68916A7A68D26A12010A433F
:102058004B4913438B627B681B6B013BC3F308023C
:102068007B685B6B013B5B029BB21A437B689B6B93
:10207800013B1B0403F4FE031A437B68DB6B013B43
:102088001B0603F0FE433E4913430B633C4B5A6B5C
:102098003D4B13407A68916C4FF6F8723A613A6991
:1020A80092FAA2F2FA60FA68B2FA82F201FA02F23D
:1020B800334913434B63324BDB6A23F00C027B68D2
:1020C8001B6C2F491343CB622D4BDB6A23F00202B2
:1020D8007B685B6C2A491343CB62294BDB6A284A2D
:1020E80043F48033D362264BDB6A254A43F400333A
:1020F800D362234BDB6A224A43F48023D362204B0A
:10210800DB6A1F4A43F00103D3621D4B1B681C4A5C
:1021180043F080731360FEF72FFD786308E0FEF745
:102128002BFD02467B6BD31A022B01D9032323E034
:10213800134B1B6803F00073002BF0D01BE0104B0F
:102148001B680F4A23F080731360FEF715FD786350
:1021580008E0FEF711FD02467B6BD31A022B01D96A
:10216800032309E0064B1B6803F00073002BF0D132
:1021780001E0012300E0002318463837BD4680BD42
:10218800004402580CFCFFFF0700FFFF80B586B033
:1021980000AF7860396000237B619D4B1B6803F0BA
:1021A80007033A689A4210D9994B1B6823F0070233
:1021B80097493B6813430B60954B1B6803F0070373
:1021C8003A689A4201D001231DE17B681B6803F03D
:1021D8000203002B08D08F4B9B6923F00F027B680A
:1021E800DB688C4913438B617B681B6803F0010330
:1021F800002B00F09780874B9B6923F470627B6803
:102208009B68844913438B617B685B68022B07D109
:10221800804B1B6803F40033002B21D10123F2E02B
:102228007B685B68032B07D17A4B1B6803F000734C
:10223800002B15D10123E6E07B685B68012B07D1F1
:10224800744B1B6803F48073002B09D10123DAE077
:10225800704B1B6803F00403002B01D10123D2E06B
:102268006C4B1B6923F007027B685B686949134361
:102278000B61FEF781FC78617B685B68022B12D1E9
:102288000AE0FEF779FC02467B69D31A41F28832EC
:10229800934201D90323B6E05E4B1B6903F0380370
:1022A800102BEED13EE07B685B68032B12D10AE06D
:1022B800FEF762FC02467B69D31A41F288329342E8
:1022C80001D903239FE0534B1B6903F03803182BF4
:1022D800EED127E07B685B68012B1DD10AE0FEF791
:1022E8004BFC02467B69D31A41F28832934201D9EA
:1022F800032388E0474B1B6903F03803082BEED112
:1023080010E0FEF739FC02467B69D31A41F28832A5
:10231800934201D9032376E03E4B1B6903F038034F
:10232800002BEED13A4B1B6803F007033A689A4238
:1023380010D2374B1B6823F0070235493B6813431B
:102348000B60334B1B6803F007033A689A4201D0CD
:10235800012358E07B681B6803F00403002B08D0B6
:102368002C4B9B6923F070027B681B692949134336
:102378008B617B681B6803F00803002B08D0254B92
:10238800DB6923F070027B685B6922491343CB61E8
:102398007B681B6803F01003002B08D01D4BDB691A
:1023A80023F4E0627B689B691A491343CB617B681D
:1023B8001B6803F02003002B08D0164B1B6A23F080
:1023C80070027B68DB69134913430B6200F028F83D
:1023D8000146104B9B6903F470624FF480733B61B4
:1023E8003B6993FAA3F3FB60FB68B3FA83F322FA21
:1023F80003F3094AD35C21FA03F3084A1360002067
:10240800FEF778FB002318461837BD4680BD00BF8D
:102418000020005200440258EC5B0008080000202D
:10242800B0B588B000AF01237B6100233B61012375
:10243800FB600023BB6000237B604FF000033B6020
:102448004FF00003FB610023BB61964B1B6903F04F
:102458003803182B00F26C8101A252F823F000BF58
:10246800CD24000839270008392700083927000833
:1024780039270008392700083927000839270008B4
:10248800F3240008392700083927000839270008ED
:102498003927000839270008392700083927000894
:1024A800F9240008392700083927000839270008C7
:1024B8003927000839270008392700083927000874
:1024C800FF240008774B1B6803F02003002B09D07A
:1024D800744B1B68DB0803F00303734A22FA03F307
:1024E800BB6128E1704BBB6125E1704BBB6122E108
:1024F8006F4BBB611FE16B4B9B6A03F003033B61AE
:10250800684B9B6A1B0903F03F03FB60654BDB6A62
:1025180003F00103BB60634B5B6BDB08C3F30C0385
:10252800BA6802FB03F31846FDF788FF03463B60D1
:102538003B69012B66D03B69002B04D03B69022B19
:1025480000F08880B6E0574B1B6803F02003002B8F
:1025580030D0544B1B68DB0803F00303524A22FABD
:1025680003F37B607A68FB68B2FBF3F31846FDF768
:1025780065FF04464B4B1B6BC3F308031846FDF776
:102588005DFF05464FF08C413868FEF763F8034657
:1025980019462846FDF7A2FE03464FF07E5118461D
:1025A800FDF79CFE034619462046FDF79FFF0346AC
:1025B800FB61A7E03C4AFB68B2FBF3F31846FDF762
:1025C8003DFF0446374B1B6BC3F308031846FDF762
:1025D80035FF05464FF08C413868FEF73BF8034657
:1025E80019462846FDF77AFE03464FF07E511846F5
:1025F800FDF774FE034619462046FDF777FF0346AC
:10260800FB617FE0294AFB68B2FBF3F31846FDF74C
:1026180015FF0446234B1B6BC3F308031846FDF74D
:102628000DFF05464FF08C413868FEF713F8034656
:1026380019462846FDF752FE03464FF07E511846CC
:10264800FDF74CFE034619462046FDF74FFF0346AB
:10265800FB6157E0164AFB68B2FBF3F31846FDF737
:10266800EDFE04460F4B1B6BC3F308031846FDF73A
:10267800E5FE05464FF08C413868FDF7EBFF034651
:1026880019462846FDF72AFE03464FF07E511846A4
:10269800FDF724FE034619462046FDF727FF0346AB
:1026A800FB612FE0004402580090D00300093D0070
:1026B80000127A00224AFB68B2FBF3F31846FDF7D2
:1026C800BDFE04461F4B1B6BC3F308031846FDF7FA
:1026D800B5FE05464FF08C413868FDF7BBFF034651
:1026E80019462846FDF7FAFD03464FF07E51184675
:1026F800FDF7F4FD034619462046FDF7F7FE0346AD
:10270800FB6100BF0F4B1B6B5B0A03F07F030133B8
:102718007B617869FDF792FE03461946F869FDF773
:1027280099FF03461846FEF731F80346BB6102E0FD
:10273800034BBB6100BFBB6918462037BD46B0BD1F
:1027480000093D000044025880B582B000AF01F096
:102758005DFA01460D4B9B6903F00F0201237B6074
:102768007B6893FAA3F33B603B68B3FA83F322FADE
:1027780003F3074AD35C21FA03F3064A1360054BB7
:102788001B6818460837BD4680BD00BF0044025884
:10279800EC5B00080C00002080B582B000AFFFF7AA
:1027A800D3FF01460B4BDB6903F0700210237B60FB
:1027B8007B6893FAA3F33B603B68B3FA83F322FA8E
:1027C80003F3054AD35C21FA03F318460837BD46DC
:1027D80080BD00BF00440258EC5B000880B582B0A1
:1027E80000AFFFF7B1FF01460B4BDB6903F4E06272
:1027F8004FF480737B607B6893FAA3F33B603B687C
:10280800B3FA83F322FA03F3044AD35C21FA03F3FD
:1028180018460837BD4680BD00440258EC5B0008E6
:1028280080B586B000AF78600023FB750023BB75C8
:102838007B681B6803F00063002B3FD07B685B6EEE
:10284800B3F5801F13D0B3F5801F02D8002B07D033
:102858001FE0B3F5001F13D0B3F5401F1CD018E0DC
:10286800B14BDB6AB04A43F40033D36215E07B68AE
:1028780004330221184601F0F1F90346FB750CE018
:102888007B6824330221184601F082FA0346FB755F
:1028980003E00123FB7500E000BFFB7D002B09D19D
:1028A800A14B1B6D23F440127B685B6E9E4913435A
:1028B8000B6503E0BA7DFB7D1343BB757B681B6822
:1028C80003F48073002B3FD07B685B6D042B26D804
:1028D80001A252F823F000BFF528000803290008D8
:1028E800152900082D2900082D2900088E4BDB6AC0
:1028F8008D4A43F40033D36215E07B68043300212A
:10290800184601F0ABF90346FB750CE07B682433ED
:102918000021184601F03CFA0346FB7503E0012349
:10292800FB7500E000BFFB7D002B09D17E4B1B6DC2
:1029380023F007027B685B6D7B4913430B6503E05B
:10294800BA7DFB7D1343BB757B681B6803F400737A
:10295800002B40D07B689B6D802B1CD0802B04D82B
:10296800002B08D0402B0DD01EE0C02B1FD0B3F594
:10297800807F1ED018E06C4BDB6A6B4A43F400334F
:10298800D36217E07B6804330021184601F066F92A
:102998000346FB750EE07B6824330021184601F0DE
:1029A800F7F90346FB7505E00123FB7502E000BF5C
:1029B80000E000BFFB7D002B09D15B4B1B6D23F4AE
:1029C800E0727B689B6D584913430B6503E0BA7D41
:1029D800FB7D1343BB757B681B6803F48063002B86
:1029E80046D07B68D3F8A430B3F5800F1FD0B3F579
:1029F800800F05D8002B0AD0B3F5001F0ED01FE0BA
:102A0800B3F5C00F1FD0B3F5000F1ED018E0464B2A
:102A1800DB6A454A43F40033D36217E07B6804332A
:102A28000021184601F01AF90346FB750EE07B6891
:102A380024330021184601F0ABF90346FB7505E085
:102A48000123FB7502E000BF00E000BFFB7D002B07
:102A58000AD1354B9B6D23F460027B68D3F8A43010
:102A6800314913438B6503E0BA7DFB7D1343BB7586
:102A78007B681B6803F40063002B46D07B68D3F89F
:102A8800A830B3F1007F1FD0B3F1007F05D8002B29
:102A98000AD0B3F1807F0ED01FE0B3F1407F1FD082
:102AA800B3F1806F1ED018E01F4BDB6A1E4A43F457
:102AB8000033D36217E07B6804330021184601F025
:102AC800CDF80346FB750EE07B68243300211846D9
:102AD80001F05EF90346FB7505E00123FB7502E092
:102AE80000BF00E000BFFB7D002B0AD10E4B9B6DA1
:102AF80023F0E0627B68D3F8A8300B4913438B6559
:102B080003E0BA7DFB7D1343BB757B681B6803F04C
:102B18000073002B36D07B689B6C102B0BD0102BCE
:102B280004D8002B1AD016E000440258202B09D0F4
:102B3800302B15D00FE0AE4BDB6AAD4A43F40033BF
:102B4800D3620EE07B6804330221184601F086F850
:102B58000346FB7505E00123FB7502E000BF00E0BA
:102B680000BFFB7D002B09D1A14BDB6C23F03002A9
:102B78007B689B6C9E491343CB6403E0BA7DFB7D65
:102B88001343BB757B681B6803F48053002B44D048
:102B98007B68DB6DB3F5005F1FD0B3F5005F05D828
:102BA800002B0AD0B3F5805F0ED01FE0B3F5405F6D
:102BB8001FD0B3F5804F1ED018E08D4BDB6A8C4ACE
:102BC80043F40033D36217E07B68043300211846CE
:102BD80001F044F80346FB750EE07B6824330021BE
:102BE800184601F0D5F80346FB7505E00123FB758F
:102BF80002E000BF00E000BFFB7D002B09D17C4B49
:102C08001B6D23F4E0427B68DB6D794913430B6548
:102C180003E0BA7DFB7D1343BB757B681B6803F437
:102C28000053002B44D07B681B6EB3F5003F1BD0CC
:102C3800B3F5003F05D8002B22D0B3F5803F0AD06A
:102C48001BE0B3F5802F1DD0B3F5A02F1CD0B3F532
:102C5800403F1BD011E07B6804330121184600F087
:102C6800FDFF0346FB7512E07B68243301211846FB
:102C780001F08EF80346FB7509E00123FB7506E0B9
:102C880000BF04E000BF02E000BF00E000BFFB7D22
:102C9800002B09D1564B1B6D23F4E0227B681B6E79
:102CA800534913430B6503E0BA7DFB7D1343BB75A2
:102CB8007B681B6803F48043002B46D07B68D3F8FD
:102CC800AC30B3F1005F1BD0B3F1005F05D8002B27
:102CD80022D0B3F1805F0AD01BE0B3F1804F1DD042
:102CE800B3F1A04F1CD0B3F1405F1BD011E07B685B
:102CF80004330121184600F0B1FF0346FB7512E0CA
:102D08007B6824330121184601F042F80346FB751D
:102D180009E00123FB7506E000BF04E000BF02E004
:102D280000BF00E000BFFB7D002B0AD1304B9B6D3C
:102D380023F0E0427B68D3F8AC302D4913438B6510
:102D480003E0BA7DFB7D1343BB757B681B6803F406
:102D58000043002B2FD07B68DB6EB3F1805F05D07A
:102D6800B3F1005F09D0002B13D00FE0204BDB6AD2
:102D78001F4A43F40033D3620CE07B68043301211B
:102D8800184600F06BFF0346FB7503E00123FB7553
:102D980000E000BFFB7D002B09D1154B1B6D23F014
:102DA80040527B68DB6E124913430B6503E0BA7D22
:102DB800FB7D1343BB757B681B6803F08073002B96
:102DC80036D07B685B6C032B1DD801A252F823F028
:102DD800152E0008E92D0008FD2D0008152E000805
:102DE800034BDB6A024A43F40033D3620FE000BFAF
:102DF800004402587B6804330221184600F02EFF75
:102E08000346FB7503E00123FB7500E000BFFB7D73
:102E1800002B09D1B04BDB6C23F003027B685B6CA1
:102E2800AD491343CB6403E0BA7DFB7D1343BB7507
:102E38007B681B6803F48003002B00F08A80A74B93
:102E48001B68A64A43F480731360FDF795FE38614A
:102E580009E0FDF791FE02463B69D31A642B02D9BB
:102E68000323FB7505E09D4B1B6803F48073002B5F
:102E7800EFD0FB7D002B68D1974B1A6F7B68D3F896
:102E8800B030534003F44073002B13D0924B1B6FA8
:102E980023F44073FB60904B1B6F8F4A43F48033DD
:102EA80013678D4B1B6F8C4A23F4803313678A4A50
:102EB800FB6813677B68D3F8B030B3F5807F15D112
:102EC800FDF75AFE38610BE0FDF756FE02463B69F6
:102ED800D31A41F28832934202D90323FB7505E0E5
:102EE8007D4B1B6F03F00203002BEDD0FB7D002B05
:102EF80026D17B68D3F8B03003F44073B3F5407F34
:102F08000DD1754B1B6923F47C527B68D3F8B03024
:102F18001909734B0B40704913430B6105E06E4B65
:102F28001B696D4A23F47C5313616B4B1A6F7B68E2
:102F3800D3F8B030C3F30B03674913430B6708E0BA
:102F4800BA7DFB7D1343BB7503E0BA7DFB7D13435C
:102F5800BB757B681B6803F00103002B7FD07B687F
:102F68009B6F282B66D801A252F823F04330000843
:102F78003D3000083D3000083D3000083D30000875
:102F88003D3000083D3000083D3000081930000889
:102F98003D3000083D3000083D3000083D30000855
:102FA8003D3000083D3000083D3000082B30000857
:102FB8003D3000083D3000083D3000083D30000835
:102FC8003D3000083D3000083D300008433000081F
:102FD8003D3000083D3000083D3000083D30000815
:102FE8003D3000083D3000083D30000843300008FF
:102FF8003D3000083D3000083D3000083D300008F5
:103008003D3000083D3000083D30000843300008DE
:103018007B6804330121184600F020FE0346FB7547
:103028000CE07B6824330121184600F0B1FE03460A
:10303800FB7503E00123FB7500E000BFFB7D002B5F
:1030480009D1254B5B6D23F038027B689B6F2249C1
:1030580013434B6503E0BA7DFB7D1343BB757B6867
:103068001B6803F00203002B40D07B685B6F052BC5
:1030780020D801A252F823F0C33000089930000884
:10308800AB300008C3300008C3300008C330000864
:103098007B6804330121184600F0E0FD0346FB7508
:1030A8000CE07B6824330121184600F071FE0346CA
:1030B800FB7503E00123FB7500E000BFFB7D002BDF
:1030C80010D1054B5B6D23F007027B685B6F0249EB
:1030D80013434B650AE000BF0044025800480258F9
:1030E800CFFFFF00BA7DFB7D1343BB757B681B6870
:1030F80003F00403002B3BD07B68D3F89030052BFA
:1031080020D801A252F823F05331000829310008D1
:103118003B3100085331000853310008533100088F
:103128007B6804330121184600F098FD0346FB75BF
:103138000CE07B6824330121184600F029FE034681
:10314800FB7503E00123FB7500E000BFFB7D002B4E
:103158000AD1B74B9B6D23F007027B68D3F89030F8
:10316800B34913438B6503E0BA7DFB7D1343BB75FD
:103178007B681B6803F02003002B46D07B68D3F8DC
:103188008C30B3F1005F1BD0B3F1005F05D8002B82
:1031980022D0B3F1805F0AD01BE0B3F1804F1DD07D
:1031A800B3F1A04F1CD0B3F1405F1BD011E07B6896
:1031B80004330021184600F051FD0346FB7512E068
:1031C8007B6824330221184600F0E2FD0346FB75B4
:1031D80009E00123FB7506E000BF04E000BF02E040
:1031E80000BF00E000BFFB7D002B0AD1904B5B6D58
:1031F80023F0E0427B68D3F88C308D4913434B654C
:1032080003E0BA7DFB7D1343BB757B681B6803F045
:103218004003002B46D07B68D3F89830B3F5006F95
:103228001BD0B3F5006F05D8002B22D0B3F5806F03
:103238000AD01BE0B3F5805F1DD0B3F5A05F1CD0AA
:10324800B3F5406F1BD011E07B68043300211846AA
:1032580000F004FD0346FB7512E07B68243302216D
:10326800184600F095FD0346FB7509E00123FB7540
:1032780006E000BF04E000BF02E000BF00E000BFBE
:10328800FB7D002B0AD16A4B9B6D23F4E0527B68CF
:10329800D3F89830664913438B6503E0BA7DFB7D0C
:1032A8001343BB757B681B6803F08003002B46D073
:1032B8007B68D3F89C30B3F5804F1BD0B3F5804FB3
:1032C80005D8002B22D0B3F5005F0AD01BE0B3F578
:1032D800004F1DD0B3F5204F1CD0B3F5C04F1BD005
:1032E80011E07B6804330021184600F0B7FC034660
:1032F800FB7512E07B6824330221184600F048FD74
:103308000346FB7509E00123FB7506E000BF04E0F6
:1033180000BF02E000BF00E000BFFB7D002B0AD128
:10332800434B9B6D23F460427B68D3F89C30404943
:1033380013438B6503E0BA7DFB7D1343BB757B6844
:103348001B6803F00803002B1BD07B68D3F8803080
:10335800B3F5805F0BD17B6824330221184600F057
:1033680017FD03461A46BB7D1343BB7509E0304B76
:103378005B6D23F440527B68D3F880302C491343AB
:103388004B657B681B6803F01003002B1BD07B6820
:10339800D3F89430B3F5807F0BD17B6824330221B6
:1033A800184600F0F5FC03461A46BB7D1343BB756F
:1033B80009E01F4B9B6D23F440727B68D3F894306F
:1033C8001B4913438B657B681B6803F40023002BA0
:1033D80034D07B68D3F8A030B3F5803F0DD0B3F577
:1033E800003F16D0002B11D17B680433002118460A
:1033F80000F034FC0346FB750CE07B6824330221A3
:10340800184600F0C5FC0346FB7503E00123FB7575
:1034180000E000BFFB7D002B0CD1054B9B6D23F416
:1034280040327B68D3F8A030014913438B6505E02F
:1034380000440258BA7DFB7D1343BB757B681B684B
:1034480003F48023002B31D07B68D3F88430B3F5A4
:10345800001F0CD0B3F5401F15D0B3F5801F0FD156
:103468007C4BDB6A7B4A43F40033D3620CE07B6815
:1034780024330121184600F08BFC0346FB7503E05A
:103488000123FB7500E000BFFB7D002B0AD1714BC7
:103498005B6D23F440127B68D3F884306D49134385
:1034A8004B6503E0BA7DFB7D1343BB757B681B68E6
:1034B80003F48033002B2BD07B68DB6C002B03D00C
:1034C800B3F5803F07D00FE0624BDB6A614A43F4F3
:1034D8000033D3620BE07B6804330221184600F006
:1034E800BDFB0346FB7502E00123FB7500BFFB7DB6
:1034F800002B09D1574BDB6C23F480327B68DB6CE3
:1035080054491343CB6403E0BA7DFB7D1343BB7579
:103518007B681B6803F00053002B0AD07B682433B8
:103528000221184600F034FC03461A46BB7D1343BB
:10353800BB757B681B6803F40033002B31D07B68B4
:10354800DB6FB3F5807F0CD0B3F5807F02D8002BFA
:1035580011D00DE0B3F5007F0FD0B3F5407F0ED04A
:1035680006E03C4BDB6A3B4A43F40033D36207E096
:103578000123FB7504E000BF02E000BF00E000BFCC
:10358800FB7D002B09D1334B5B6D23F440727B68C4
:10359800DB6F304913434B6503E0BA7DFB7D134372
:1035A800BB757B681B6803F48013002B08D0294B7C
:1035B8001B6D23F000427B681B6F264913430B6584
:1035C8007B681B6803F08053002B09D0214B1B69D3
:1035D80023F480427B68D3F8B4301E4913430B614F
:1035E8007B681B6803F40013002B08D0194B1B6D74
:1035F80023F080727B689B6E164913430B657B68CA
:103608001B6803F08043002B0DD0124B1B69114A35
:1036180023F4004313610F4B1A697B68D3F8B83061
:103628000C4913430B617B681B68002B08DA094BB4
:10363800DB6C23F040527B681B6D06491343CB6457
:10364800BB7D002B01D1002300E001231846183769
:10365800BD4680BD0044025880B582B000AFFFF778
:1036680073F801460B4B1B6A03F0700210237B6052
:103678007B6893FAA3F33B603B68B3FA83F322FABF
:1036880003F3054AD35C21FA03F318460837BD460D
:1036980080BD00BF00440258EC5B0008B0B588B09C
:1036A80000AF78600023BB6101237B6100233B618D
:1036B8000023FB604FF00003BB604FF00003FB6189
:1036C800A04B9B6A03F00303BB619E4B9B6A1B0BD9
:1036D80003F03F037B619B4BDB6A03F010033B6104
:1036E800984BDB6BDB08C3F30C033A6902FB03F36B
:1036F8001846FCF7A3FE0346BB60BB69012B66D0E6
:10370800BB69002B04D0BB69022B00F08880AEE0B7
:103718008C4B1B6803F02003002B30D0894B1B68AF
:10372800DB0803F00303884A22FA03F3FB60FA6814
:103738007B69B2FBF3F31846FCF780FE0446814B25
:103748009B6BC3F308031846FCF778FE05464FF059
:103758008C41B868FCF77EFF034619462846FCF7FB
:10376800BDFD03464FF07E511846FCF7B7FD0346F2
:1037780019462046FCF7BAFE0346FB619FE0724AF1
:103788007B69B2FBF3F31846FCF758FE04466D4B11
:103798009B6BC3F308031846FCF750FE05464FF031
:1037A8008C41B868FCF756FF034619462846FCF7D3
:1037B80095FD03464FF07E511846FCF78FFD0346F2
:1037C80019462046FCF792FE0346FB6177E05F4A04
:1037D8007B69B2FBF3F31846FCF730FE0446594BFD
:1037E8009B6BC3F308031846FCF728FE05464FF009
:1037F8008C41B868FCF72EFF034619462846FCF7AB
:103808006DFD03464FF07E511846FCF767FD0346F1
:1038180019462046FCF76AFE0346FB614FE04C4A16
:103828007B69B2FBF3F31846FCF708FE0446454BE8
:103838009B6BC3F308031846FCF700FE05464FF0E0
:103848008C41B868FCF706FF034619462846FCF782
:1038580045FD03464FF07E511846FCF73FFD0346F1
:1038680019462046FCF742FE0346FB6127E0374A2B
:103878007B69B2FBF3F31846FCF7E0FD0446314BD5
:103888009B6BC3F308031846FCF7D8FD05464FF0B9
:103898008C41B868FCF7DEFE034619462846FCF75B
:1038A8001DFD03464FF07E511846FCF717FD0346F1
:1038B80019462046FCF71AFE0346FB6100BF214B60
:1038C8009B6B5B0A03F07F0301331846FCF7B6FDD8
:1038D80003461946F869FCF7BDFE03461846FCF78F
:1038E80055FF02467B681A60164B9B6B1B0C03F056
:1038F8007F0301331846FCF7A1FD03461946F86912
:10390800FCF7A8FE03461846FCF740FF02467B6812
:103918005A600C4B9B6B1B0E03F07F030133184658
:10392800FCF78CFD03461946F869FCF793FE03463D
:103938001846FCF72BFF02467B689A6000BF2037C9
:10394800BD46B0BD004402580090D00300093D00B8
:1039580000127A00B0B588B000AF78600023BB6170
:1039680001237B6100233B610023FB604FF00003D0
:10397800BB604FF00003FB61A04B9B6A03F003039D
:10398800BB619E4B9B6A1B0D03F03F037B619B4B06
:10399800DB6A03F480733B61984B5B6CDB08C3F311
:1039A8000C033A6902FB03F31846FCF747FD03468C
:1039B800BB60BB69012B66D0BB69002B04D0BB6917
:1039C800022B00F08880AEE08C4B1B6803F02003CC
:1039D800002B30D0894B1B68DB0803F00303884AAF
:1039E80022FA03F3FB60FA687B69B2FBF3F318462B
:1039F800FCF724FD0446814B1B6CC3F308031846EF
:103A0800FCF71CFD05464FF08C41B868FCF722FE18
:103A1800034619462846FCF761FC03464FF07E51E1
:103A28001846FCF75BFC034619462046FCF75EFD8A
:103A38000346FB619FE0724A7B69B2FBF3F31846C9
:103A4800FCF7FCFC04466D4B1B6CC3F308031846DB
:103A5800FCF7F4FC05464FF08C41B868FCF7FAFD1A
:103A6800034619462846FCF739FC03464FF07E51B9
:103A78001846FCF733FC034619462046FCF736FD8A
:103A88000346FB6177E05F4A7B69B2FBF3F31846B4
:103A9800FCF7D4FC0446594B1B6CC3F308031846C7
:103AA800FCF7CCFC05464FF08C41B868FCF7D2FD1A
:103AB800034619462846FCF711FC03464FF07E5191
:103AC8001846FCF70BFC034619462046FCF70EFD8A
:103AD8000346FB614FE04C4A7B69B2FBF3F318469F
:103AE800FCF7ACFC0446454B1B6CC3F308031846B3
:103AF800FCF7A4FC05464FF08C41B868FCF7AAFD1A
:103B0800034619462846FCF7E9FB03464FF07E5169
:103B18001846FCF7E3FB034619462046FCF7E6FC8B
:103B28000346FB6127E0374A7B69B2FBF3F318468B
:103B3800FCF784FC0446314B1B6CC3F3080318469E
:103B4800FCF77CFC05464FF08C41B868FCF782FD19
:103B5800034619462846FCF7C1FB03464FF07E5141
:103B68001846FCF7BBFB034619462046FCF7BEFC8B
:103B78000346FB6100BF214B1B6C5B0A03F07F030C
:103B880001331846FCF75AFC03461946F869FCF756
:103B980061FD03461846FCF7F9FD02467B681A608A
:103BA800164B1B6C1B0C03F07F0301331846FCF704
:103BB80045FC03461946F869FCF74CFD03461846D0
:103BC800FCF7E4FD02467B685A600C4B1B6C1B0E2D
:103BD80003F07F0301331846FCF730FC034619460F
:103BE800F869FCF737FD03461846FCF7CFFD024697
:103BF8007B689A6000BF2037BD46B0BD00440258BC
:103C08000090D00300093D0000127A0080B582B010
:103C180000AFFEF705FC01460D4B9B6903F470628B
:103C28004FF480737B607B6893FAA3F33B603B6837
:103C3800B3FA83F322FA03F3064AD35C21FA03F3B7
:103C4800054A1360044B1B6818460837BD4680BDFB
:103C580000440258EC5B00080800002080B584B0DE
:103C680000AF786039600023FB73484B9B6A03F010
:103C78000303032B01D1012383E0444B1B68434A10
:103C880023F080631360FCF777FFB86008E0FCF767
:103C980073FF0246BB68D31A022B01D9032370E0D5
:103CA8003A4B1B6803F00063002BF0D1374B9B6A3B
:103CB80023F47C327B681B681B03344913438B62F3
:103CC8007B685B68013BC3F308027B689B68013B28
:103CD8005B029BB21A437B68DB68013B1B0403F45D
:103CE800FE031A437B681B69013B1B0603F0FE4376
:103CF800264913438B63254BDB6A23F0C0027B689C
:103D08005B6922491343CB62204BDB6A23F0200214
:103D18007B689B691D491343CB623B68002B06D126
:103D28001A4BDB6A194A43F40023D3620FE03B685D
:103D3800012B06D1154BDB6A144A43F48013D36276
:103D480005E0124BDB6A114A43F40013D3620F4BB0
:103D58001B680E4A43F080631360FCF70DFFB860E0
:103D680008E0FCF709FF0246BB68D31A022B01D909
:103D7800032306E0054B1B6803F00063002BF0D01B
:103D8800FB7B18461037BD4680BD00BF0044025873
:103D980080B584B000AF786039600023FB73484B6E
:103DA8009B6A03F00303032B01D1012383E0444BF7
:103DB8001B68434A23F080531360FCF7DDFEB860AC
:103DC80008E0FCF7D9FE0246BB68D31A022B01D9DA
:103DD800032370E03A4B1B6803F00053002BF0D12B
:103DE800374B9B6A23F07C727B681B681B05344940
:103DF80013438B627B685B68013BC3F308027B68F3
:103E08009B68013B5B029BB21A437B68DB68013B02
:103E18001B0403F4FE031A437B681B69013B1B0662
:103E280003F0FE43264913430B64254BDB6A23F456
:103E380040627B685B6922491343CB62204BDB6A93
:103E480023F400727B689B691D491343CB623B686E
:103E5800002B06D11A4BDB6A194A43F48003D3625C
:103E68000FE03B68012B06D1154BDB6A144A43F47B
:103E78000003D36205E0124BDB6A114A43F08073FA
:103E8800D3620F4B1B680E4A43F080531360FCF754
:103E980073FEB86008E0FCF76FFE0246BB68D31AF1
:103EA800022B01D9032306E0054B1B6803F00053DE
:103EB800002BF0D0FB7B18461037BD4680BD00BFF5
:103EC8000044025880B582B000AF78607B68002B50
:103ED80001D1012343E07B6893F87930DBB2002BF2
:103EE80006D17B68002283F87820786801F002FD0B
:103EF8007B68242283F879207B681B681A687B68B2
:103F08001B6822F001021A60786800F0B9F80346CD
:103F1800012B01D1012322E07B685B6B002B02D0CF
:103F2800786801F087F87B681B685A687B681B68AB
:103F380022F490425A607B681B689A687B681B6809
:103F480022F02A029A607B681B681A687B681B68E3
:103F580042F001021A60786801F00DF9034618462C
:103F68000837BD4680BD80B588B002AFF860B9603B
:103F78003B601346FB8000237B61FB6893F8793034
:103F8800DBB2202B77D1BB68002B02D0FB88002B3B
:103F980001D1012370E0FB6893F87830012B01D13F
:103FA800022369E0FB68012283F87820FB6800227D
:103FB800DA67FB68212283F87920FCF7DDFD786158
:103FC800FB68FA88A3F86020FB68FA88A3F86220E7
:103FD80034E0FB68B3F862309BB2013B9AB2FB68ED
:103FE800A3F862203B6800937B6900228021F8686F
:103FF80001F00AF90346002B01D003233CE0FB68DB
:104008009B68B3F5805F11D1FB681B69002B0DD14C
:10401800BB683B613B691A88FB681B68C2F30802EE
:1040280092B21A85BB680233BB6007E0BB685A1CB2
:10403800BA601A78FB681B6892B21A85FB68B3F8F5
:1040480062309BB2002BC4D13B6800937B6900228D
:104058004021F86801F0D8F80346002B01D003236B
:104068000AE0FB68202283F87920FB68002283F8A5
:104078007820002300E0022318461837BD4680BD8B
:104088002DE9F04F95B000AF78620023FB648023E0
:1040980087F84B300023A7F844300023A7F84830AE
:1040A800002387F847307B6A9A687B6A1B691A4342
:1040B8007B6A5B691A437B6ADB691343FB647B6A2F
:1040C8009A6AFB6C1343FB647B6A1B681B68C049D4
:1040D80019407B6A1A68FB6C0B4313607B6A1B6888
:1040E8005B6823F440507B6AD9687B6A1A6840EAA7
:1040F800010353607B6A9B69FB647B6A1A68B54B52
:104108009A4204D07B6A1A6AFB6C1343FB647B6A8D
:104118009B6AB3F1005F07D17B6ADA6A7B6A1B6B23
:104128001A43FB6C1343FB647B6A1B689B68AA49B0
:1041380019407B6A1A68FB6C0B4393607B6A1B68A7
:10414800DB6A23F00F007B6A596A7B6A1A6840EAC7
:104158000103D3627B6A1A68A04B9A4275D1A04BBF
:104168005B6D03F03803282B00F2678201A252F836
:1041780023F000BF214200084346000843460008D8
:1041880043460008434600084346000843460008E3
:1041980043460008294200084346000843460008F1
:1041A80043460008434600084346000843460008C3
:1041B80043460008314200084346000843460008C9
:1041C80043460008434600084346000843460008A3
:1041D80043460008394200084346000843460008A1
:1041E8004346000843460008434600084346000883
:1041F8004346000841420008434600084346000879
:104208004346000843460008434600084346000862
:104218004346000849420008012387F84B300CE266
:10422800042387F84B3008E2402387F84B3004E238
:10423800082387F84B3000E2102387F84B30FCE165
:10424800202387F84B3000BFF7E17B6A1A68654B7B
:104258009A422ED1624B5B6D03F00703052B00F2E7
:10426800EC8101A252F823F089420008914200082B
:1042780099420008A1420008A9420008B14200087A
:10428800002387F84B30D8E1042387F84B30D4E17A
:10429800402387F84B30D0E1082387F84B30CCE136
:1042A800102387F84B30C8E1202387F84B3000BF34
:1042B800C3E17B6A1A684C4B9A422ED1484B5B6D1E
:1042C80003F00703052B00F2B88101A252F823F08E
:1042D800F1420008F94200080143000809430008B8
:1042E8001143000819430008002387F84B30A4E164
:1042F800042387F84B30A0E1402387F84B309CE13A
:10430800082387F84B3098E1102387F84B3094E165
:10431800202387F84B3000BF8FE17B6A1A68334B44
:104328009A422ED12E4B5B6D03F00703052B00F24A
:10433800848101A252F823F0594300086143000820
:104348006943000871430008794300088143000865
:10435800002387F84B3070E1042387F84B306CE179
:10436800402387F84B3068E1082387F84B3064E135
:10437800102387F84B3060E1202387F84B3000BFCB
:104388005BE17B6A1A681A4B9A4240D1144B5B6D09
:1043980003F00703052B00F2508101A252F823F025
:1043A800C1430008C9430008D1430008FD43000881
:1043B800054400080D440008002387F84B303CE111
:1043C800042387F84B3038E1402387F84B3034E139
:1043D800F369FFCF000C0058FFF4FF1100100140F3
:1043E800004402580044004000480040004C00408F
:1043F80000500040082387F84B301EE1102387F84F
:104408004B301AE1202387F84B3000BF15E17B6A57
:104418001A68C64B9A4274D1C54B5B6D03F03803DA
:10442800282B00F20A8101A252F823F0D94400088F
:104438004346000843460008434600084346000830
:10444800434600084346000843460008E144000884
:104458004346000843460008434600084346000810
:10446800434600084346000843460008E94400085C
:1044780043460008434600084346000843460008F0
:10448800434600084346000843460008F144000834
:1044980043460008434600084346000843460008D0
:1044A800434600084346000843460008F94400080C
:1044B80043460008434600084346000843460008B0
:1044C80043460008434600084346000801450008E3
:1044D800012387F84B30B0E0042387F84B30ACE079
:1044E800402387F84B30A8E0082387F84B30A4E036
:1044F800102387F84B30A0E0202387F84B3000BF0B
:104508009BE07B6A1A688B4B9A422ED1884B5B6D75
:1045180003F00703052B00F2908001A252F823F064
:10452800414500084945000851450008594500081B
:104538006145000869450008002387F84B307CE096
:10454800042387F84B3078E0402387F84B3074E039
:10455800082387F84B3070E0102387F84B306CE065
:10456800202387F84B3000BF67E07B6A1A68724BDC
:104578009A422ED16E4B5B6D03F00703052B5CD876
:1045880001A252F823F000BFA9450008B145000870
:10459800B9450008C1450008C9450008D1450008CB
:1045A800002387F84B3048E0042387F84B3044E079
:1045B800402387F84B3040E0082387F84B303CE035
:1045C800102387F84B3038E0202387F84B3000BFA2
:1045D80033E07B6A1A68594B9A422DD1544B9B6D34
:1045E80003F00703052B28D801A252F823F000BFD7
:1045F8001146000819460008214600082946000807
:104608003146000839460008022387F84B3014E089
:10461800042387F84B3010E0402387F84B300CE038
:10462800082387F84B3008E0102387F84B3004E064
:10463800202387F84B3000E000BF7B6A1A683F4BA5
:104648009A4240F01D820023FB6497F84B30082BF8
:1046580021D0082B04DC022B09D0042B0BD033E02B
:10466800202B2DD0402B0ED0102B26D02CE0FEF77F
:10467800F3FFF8642CE007F138031846FFF70EF84B
:10468800FB6BFB6424E007F12C031846FFF762F983
:104698003B6BFB641CE0264B1B6803F02003002BDC
:1046A80008D0234B1B68DB0803F00302244BD340DC
:1046B800FB640DE0224BFB640AE0224BFB6407E03D
:1046C8004FF40043FB6403E0012387F8473000BF41
:1046D800FB6C002B00F09E847B6A5A6813465B00D3
:1046E8001A44FB6C934205D37B6A5B681A03FB6C24
:1046F800934204D9012387F8473000F08BBC97F820
:104708004B30082B00F0CB80082B04DC022B1BD08D
:10471800042B50D097E1202B00F06981402B00F04A
:104728008480102B00F030818DE100BF001401401F
:104738000044025800780040007C0040000C0058FB
:104748000090D00300093D00FEF786FF0346184697
:104758004FF000017B6A5B6AC54A32F813309BB29E
:104768004FF000041A462346FCF730F803460C467F
:10477800194622464FF000034FF00004140244EAA1
:1047880011640B027A6A5268520811464FF000020F
:104798005818B86144EB0203FB617B6A5B684FF011
:1047A80000041A462346D7E90601FCF70FF803462A
:1047B8000C46FB644BE107F138031846FEF76EFF21
:1047C800FB6B18464FF000017B6A5B6AA84A32F817
:1047D80013309BB24FF000041A462346FBF7F6FF4E
:1047E80003460C46194622464FF000034FF00004DA
:1047F800140244EA11640B027A6A5268520811469C
:104808004FF000025818386144EB02037B617B6A61
:104818005B684FF000041A462346D7E90401FBF70A
:10482800D5FF03460C46FB6411E107F12C0318463B
:10483800FFF790F83B6B18464FF000017B6A5B6A04
:104848008B4A32F813309BB24FF000041A462346C5
:10485800FBF7BCFF03460C46194622464FF00003FF
:104868004FF00004140244EA11640B027A6A526899
:10487800520811464FF000025818B86044EB020382
:10488800FB607B6A5B684FF000041A462346D7E951
:104898000201FBF79BFF03460C46FB64D7E0754B10
:1048A8001B6803F02003002B3BD0724B1B68DB080E
:1048B80003F00303704A22FA03F318464FF000018D
:1048C8007B6A5B6A6A4A32F813309BB24FF0000485
:1048D8001A462346FBF77AFF03460C46194622463A
:1048E8004FF000034FF00004140244EA11640B0275
:1048F8007A6A5268520811464FF000025818386018
:1049080044EB02037B607B6A5B684FF000041A4645
:104918002346D7E90001FBF759FF03460C46FB6421
:1049280095E07B6A5B6A524A32F813309BB24FF0CB
:1049380000041A46234650484FF00001FBF746FF93
:1049480003460C46194622464FF000034FF0000478
:10495800140244EA11640B027A6A5268520811463A
:104968004FF0000213EB010A44EB020B7B6A5B6811
:104978004FF000041A46234650465946FBF726FFD7
:1049880003460C46FB6462E07B6A5B6A384A32F88D
:1049980013309BB24FF000041A46234637484FF0B5
:1049A8000001FBF713FF03460C46194622464FF059
:1049B80000034FF00004140244EA11640B027A6AFF
:1049C8005268520811464FF0000213EB010844EBFD
:1049D80002097B6A5B684FF000041A46234640468A
:1049E8004946FBF7F3FE03460C46FB642FE07B6A5F
:1049F8005B6A1F4A32F813304FF40042B2FBF3F3FC
:104A08009BB299B24FF000024FF000034FF0000440
:104A1800140244EA11640B027A6A52685208114679
:104A28004FF000025D1844EB02067B6A5B684FF0AA
:104A380000041A46234628463146FBF7C7FE0346BC
:104A48000C46FB6403E0012387F8473000BFFB6C8A
:104A5800B3F5407F08D3FB6CB3F5801F04D27B6AA3
:104A68001B68FA6CDA60D5E2012387F84730D1E297
:104A7800C45B0008004402580090D00300093D00C0
:104A88007B6ADB69B3F5004F40F0658197F84B30DE
:104A9800402B00F2448101A252F823F0A94B0008F0
:104AA800D54B0008274D0008274D0008014C000889
:104AB800274D0008274D0008274D0008654C0008C1
:104AC800274D0008274D0008274D0008274D0008EE
:104AD800274D0008274D0008274D0008D14C000835
:104AE800274D0008274D0008274D0008274D0008CE
:104AF800274D0008274D0008274D0008274D0008BE
:104B0800274D0008274D0008274D0008274D0008AD
:104B1800274D0008274D0008274D0008FB4C0008CA
:104B2800274D0008274D0008274D0008274D00088D
:104B3800274D0008274D0008274D0008274D00087D
:104B4800274D0008274D0008274D0008274D00086D
:104B5800274D0008274D0008274D0008274D00085D
:104B6800274D0008274D0008274D0008274D00084D
:104B7800274D0008274D0008274D0008274D00083D
:104B8800274D0008274D0008274D0008274D00082D
:104B9800274D0008274D0008274D0008334C000812
:104BA800FDF7FAFD01467B6A5B6AC74A32F81330A3
:104BB800B1FBF3F35A007B6A5B685B081A447B6AB3
:104BC8005B68B2FBF3F3A7F84830ACE0FDF706FEEC
:104BD80001467B6A5B6ABC4A32F81330B1FBF3F3D7
:104BE8005A007B6A5B685B081A447B6A5B68B2FBA5
:104BF800F3F3A7F8483096E007F138031846FEF7B4
:104C08004DFDFB6B7A6A526AAF4931F81220B3FB4B
:104C1800F2F35A007B6A5B685B081A447B6A5B683C
:104C2800B2FBF3F3A7F848307DE007F12C031846F0
:104C3800FEF790FE3B6B7A6A526AA34931F812205C
:104C4800B3FBF2F35A007B6A5B685B081A447B6A21
:104C58005B68B2FBF3F3A7F8483064E09B4B1B6832
:104C680003F02003002B1AD0984B1B68DB0803F0D5
:104C78000303974A22FA03F37A6A526A924931F88F
:104C88001220B3FBF2F35A007B6A5B685B081A4494
:104C98007B6A5B68B2FBF3F3A7F8483043E07B6AB2
:104CA8005B6A894A32F813301A46894BB3FBF2F330
:104CB8005A007B6A5B685B081A447B6A5B68B2FBD4
:104CC800F3F3A7F848302EE07B6A5B6A7E4A32F835
:104CD80013301A467F4BB3FBF2F35A007B6A5B68CA
:104CE8005B081A447B6A5B68B2FBF3F3A7F84830A9
:104CF80019E07B6A5B6A744A32F813304FF4004259
:104D0800B2FBF3F39BB25A007B6A5B685B081A44F8
:104D18007B6A5B68B2FBF3F3A7F8483003E0012332
:104D280087F8473000BFB7F8483023F00F03A7F8DB
:104D38004430B7F848305B109BB203F007039AB2CF
:104D4800B7F844301343A7F844307B6A1B68B7F8B8
:104D58004420DA605EE197F84B30402B00F2568130
:104D680001A252F823F000BF754E0008A34E0008B8
:104D78001550000815500008E14E000815500008AD
:104D88001550000815500008494F00081550000834
:104D98001550000815500008155000081550000857
:104DA8001550000815500008B94F000815500008A4
:104DB8001550000815500008155000081550000837
:104DC8001550000815500008155000081550000827
:104DD8001550000815500008155000081550000817
:104DE8001550000815500008E54F00081550000838
:104DF80015500008155000081550000815500008F7
:104E080015500008155000081550000815500008E6
:104E180015500008155000081550000815500008D6
:104E280015500008155000081550000815500008C6
:104E380015500008155000081550000815500008B6
:104E480015500008155000081550000815500008A6
:104E58001550000815500008155000081550000896
:104E68001550000815500008154F0008FDF794FC70
:104E780001467B6A5B6A144A32F81330B1FBF3F2DD
:104E88007B6A5B685B081A447B6A5B68B2FBF3F376
:104E98009AB27B6A1B68DA60BCE0FDF79FFC0146AA
:104EA8007B6A5B6A084A32F81330B1FBF3F27B6A1B
:104EB8005B685B081A447B6A5B68B2FBF3F39AB2DF
:104EC8007B6A1B68DA60A5E0C45B000800440258EE
:104ED8000090D00300093D0007F138031846FEF79B
:104EE800DDFBFB6B7A6A526A4E4931F81220B3FB3C
:104EF800F2F27B6A5B685B081A447B6A5B68B2FB08
:104F0800F3F39AB27B6A1B68DA6083E007F12C033B
:104F18001846FEF71FFD3B6B7A6A526A414931F821
:104F28001220B3FBF2F27B6A5B685B081A447B6A67
:104F38005B68B2FBF3F39AB27B6A1B68DA6069E0DC
:104F4800394B1B6803F02003002B1BD0364B1B6822
:104F5800DB0803F00303354A22FA03F37A6A526A3C
:104F6800304931F81220B3FBF2F27B6A5B685B08C8
:104F78001A447B6A5B68B2FBF3F39AB27B6A1B68DC
:104F8800DA6047E07B6A5B6A264A32F813301A46D1
:104F9800264BB3FBF2F27B6A5B685B081A447B6AB8
:104FA8005B68B2FBF3F39AB27B6A1B68DA6031E0A4
:104FB8007B6A5B6A1B4A32F813301A461C4BB3FBF8
:104FC800F2F27B6A5B685B081A447B6A5B68B2FB37
:104FD800F3F39AB27B6A1B68DA601BE07B6A5B6A50
:104FE800104A32F813304FF40042B2FBF3F39BB28D
:104FF8001A467B6A5B685B081A447B6A5B68B2FB8B
:10500800F3F39AB27B6A1B68DA6003E0012387F83E
:10501800473000BF97F8473018465437BD46BDE8BB
:10502800F08F00BFC45B0008004402580090D00312
:1050380000093D0080B483B000AF78607B685B6B8B
:1050480003F00103002B0AD07B681B685B6823F41C
:1050580000317B689A6B7B681B680A435A607B68DF
:105068005B6B03F00203002B0AD07B681B685B684C
:1050780023F480317B68DA6B7B681B680A435A60CB
:105088007B685B6B03F00403002B0AD07B681B680A
:105098005B6823F480217B681A6C7B681B680A4371
:1050A8005A607B685B6B03F00803002B0AD07B68AF
:1050B8001B685B6823F400417B685A6C7B681B683B
:1050C8000A435A607B685B6B03F01003002B0AD01D
:1050D8007B681B689B6823F480517B689A6C7B68AB
:1050E8001B680A439A607B685B6B03F02003002B04
:1050F8000AD07B681B689B6823F400517B68DA6CD4
:105108007B681B680A439A607B685B6B03F040030B
:10511800002B1AD07B681B685B6823F480117B68BE
:105128001A6D7B681B680A435A607B681B6DB3F570
:10513800801F0AD17B681B685B6823F4C0017B6809
:105148005A6D7B681B680A435A607B685B6B03F087
:105158008003002B0AD07B681B685B6823F400215E
:105168007B689A6D7B681B680A435A6000BF0C37DE
:10517800BD4680BC704780B586B002AF786000231A
:10518800FB607B680022DA67FBF7F6FCF8607B6857
:105198001B681B6803F00803082B0ED16FF07E43D1
:1051A8000093FB6800224FF40011786800F02CF897
:1051B8000346002B01D0032322E07B681B681B6891
:1051C80003F00403042B0ED16FF07E430093FB68B9
:1051D80000224FF48001786800F016F80346002B8F
:1051E80001D003230CE07B68202283F879207B68B8
:1051F800202283F87A207B68002283F87820002315
:1052080018461037BD4680BD80B584B000AFF86041
:10521800B9603B601346FB712CE0BB69B3F1FF3FFB
:1052280028D0BB69002B07D0FBF7A6FC02463B68D9
:10523800D31ABA699A421DD2FB681B681A68FB68C0
:105248001B6822F4D0721A60FB681B689A68FB68B6
:105258001B6822F001029A60FB68202283F87920FB
:10526800FB68202283F87A20FB68002283F87820E4
:1052780003230FE0FB681B68DA69BB681340BA6850
:105288009A420CBF01230023DBB21A46FB799A42EB
:10529800C3D0002318461037BD4680BD80B500AF87
:1052A800FBF716FC00F018F800F090F900F0C2F8CF
:1052B80000F04CF900F00AF964230C22044905486F
:1052C800FEF751FE4FF4FA70FBF760FCF4E700BFFD
:1052D800DC5B00088C01002080B5CCB000AF514BDE
:1052E800DB68504A23F00403D3603B1D00221A6098
:1052F8004C4B9B6923F440434A4A43F480439361EF
:10530800484B9B6903F440423B1D1A603B1D1B68D8
:1053180000BF444B9B6903F40053B3F5005FF8D119
:105328000123C7F8E4304FF4A023C7F8E83002237C
:10533800C7F808310223C7F80C310123C7F8103128
:105348001823C7F814310223C7F818310423C7F803
:105358001C310223C7F820310C23C7F8243100235D
:10536800C7F828310023C7F82C3107F1E4031846A1
:10537800FCF772FB0346002B03D0BE212A4800F03D
:10538800E5F93F23C7F8C4300323C7F8C830002322
:10539800C7F8CC300023C7F8D0300023C7F8D43082
:1053A8000023C7F8D8300023C7F8DC300023C7F83B
:1053B800E03007F1C40301211846FCF7E7FE034675
:1053C800002B03D0D021184800F0C0F907F10803DA
:1053D80002221A6007F1080300225A6707F108033E
:1053E8001846FDF71DFA0346002B03D0D7210E48B7
:1053F80000F0ACF90D4B1B680D4AA2FB03239B0977
:105408001846FBF7CEFC0420FBF7D8FC002200214D
:105418004FF0FF30FBF7ABFC00BF07F59877BD46B0
:1054280080BD00BF00480258705B000808000020DB
:10543800D34D621080B582B000AF1E4B1E4A1A6071
:1054480000233B7080237B70E123BB700023FB703B
:1054580000233B7100237B71164A3B465360154B72
:1054680001221A72134B154ADA60124B144A1A6158
:10547800104B40F2F4525A610E48FBF7C7FC034642
:10548800002B03D0FF210F4800F060F934220021DF
:105498000D4800F055FB0C4B21221A600A4B4FF4C3
:1054A80040325A61084B00221A6100BF0837BD46D6
:1054B80080BD00BF24010020008002407000002051
:1054C80010000020705B0008F000002080B500AFDD
:1054D8001B4B1C4A1A601A4B4FF496425A60184BE1
:1054E80000229A60164B0022DA60154B00221A61DE
:1054F800134B0C225A61124B00229A61104B002266
:10550800DA610F4B00221A620D4B00225A620C4BD3
:1055180000229A620A4B0022DA62094B00221A63BF
:10552800074B00225A630648FEF7CCFC0346002BC3
:1055380004D040F21D11044800F008F900BF80BDF6
:105548008C010020004C0040705B000880B500AF63
:105558001B4B1C4A1A601A4B4FF4E1325A60184B25
:1055680000229A60164B0022DA60154B00221A615D
:10557800134B0C225A61124B00229A61104B0022E5
:10558800DA610F4B00221A620D4B00225A620C4B53
:1055980000229A620A4B0022DA62094B00221A633F
:1055A800074B00225A630648FEF78CFC0346002B83
:1055B80004D04FF49B71044800F0C8F800BF80BDC8
:1055C8000C02002000480040705B000880B58CB0D9
:1055D80000AF584BD3F8E030564A43F00403C2F802
:1055E800E030544BD3F8E03003F00403BB61BB69EF
:1055F800504BD3F8E0304F4A43F08003C2F8E03014
:105608004C4BD3F8E03003F080037B617B69494B56
:10561800D3F8E030474A43F00103C2F8E030454B85
:10562800D3F8E03003F001033B613B69414BD3F809
:10563800E030404A43F00203C2F8E0303D4BD3F873
:10564800E03003F00203FB60FB683A4BD3F8E0302C
:10565800384A43F00803C2F8E030364BD3F8E0305C
:1056680003F00803BB60BB68324BD3F8E030314A23
:1056780043F04003C2F8E0302E4BD3F8E03003F09B
:1056880040037B607B6800224FF481412A48FCF785
:10569800CBF9002240212948FCF7C6F94FF4005302
:1056A800FB61274B3B6200237B6207F11C03194611
:1056B8002448FCF705F84FF48143FB6101233B6262
:1056C80000237B620023BB6207F11C0319461A48BA
:1056D800FBF7F6FF4023FB6101233B6200237B625B
:1056E8000023BB6207F11C0319461448FBF7E8FFC7
:1056F8008023FB6100233B6200237B6207F11C03CC
:1057080019460E48FBF7DCFF4FF4E853FB61022310
:105718003B6200237B620023BB620A23FB6207F122
:105728001C0319460848FBF7CBFF00BF3037BD46BE
:1057380080BD00BF004402580004025800180258F7
:1057480000001111000802580000025880B483B00C
:1057580000AF78603960FEE780B582B000AF204BBB
:10576800D3F8F4301E4A43F00203C2F8F4301C4B5D
:10577800D3F8F43003F002037B607B680320FBF767
:10578800EBFA002200216FF00B00FBF7F0FA002281
:1057980000216FF00A00FBF7EAFA002200216FF0FF
:1057A8000900FBF7E4FA002200216FF00400FBF780
:1057B800DEFA002200216FF00300FBF7D8FA00227E
:1057C80000216FF00100FBF7D2FA002200214FF010
:1057D800FF30FBF7CCFA00BF0837BD4680BD00BFDD
:1057E8000044025880B58AB000AF78607B681B68B7
:1057F8003A4A93426ED13A4BD3F8D830384A43F4F8
:105808000043C2F8D830364BD3F8D83003F40043FD
:105818003B613B69324BD3F8D830314A43F480338B
:10582800C2F8D8302E4BD3F8D83003F48033FB605D
:10583800FB682B4BD3F8D830294A43F40033C2F81D
:10584800D830274BD3F8D83003F40033BB60BB689B
:1058580032237B610223BB610023FB6100233B628F
:105868000B237B6207F1140319461E48FBF728FF38
:1058780086237B610223BB610023FB6100233B621B
:105888000B237B6207F1140319461748FBF718FF2F
:105898004FF400537B610223BB610023FB610023AB
:1058A8003B620B237B6207F1140319460F48FBF791
:1058B80007FF4FF420537B610223BB610023FB6188
:1058C80000233B620B237B6207F114031946084847
:1058D800FBF7F6FE00BF2837BD4680BD00800240BA
:1058E80000440258000802580000025800040258F8
:1058F8000018025880B58AB000AF78607B681B68D2
:10590800264A934220D1264BD3F8E830244A43F460
:105918000023C2F8E830224BD3F8E83003F4002320
:105928003B613B694FF440737B610223BB610023F9
:10593800FB6100233B6208237B6207F114031946CD
:105948001848FBF7BDFE24E07B681B68164A9342A3
:105958001FD1134BD3F8E830114A43F48023C2F81F
:10596800E8300F4BD3F8E83003F48023FB60FB6882
:105978004FF440737B610223BB610023FB6100236A
:105988003B6207237B6207F1140319460748FBF7BC
:1059980097FE00BF2837BD4680BD00BF004C0040C1
:1059A800004402580004025800480040000C025805
:1059B80080B400AF00BFBD4680BC704780B400AF64
:1059C800FEE780B400AFFEE780B400AFFEE780B426
:1059D80000AFFEE780B400AF00BFBD4680BC704793
:1059E80080B400AF00BFBD4680BC704780B400AF34
:1059F80000BFBD4680BC704780B500AFFBF7AAF872
:105A0800FBF7F8F900BF80BD80B400AF214B1B68DD
:105A1800204A43F0010313601E4B00221A611D4BFC
:105A28001A681C491C4B13400B601A4B00229A61E0
:105A3800184B0022DA61174B00221A62154B00221C
:105A48009A62144B0022DA62124B00221A63114B3D
:105A580000225A630F4B00229A630E4B0022DA632E
:105A68000C4B00221A640B4B00225A64094B1B682A
:105A7800084A23F480231360064B00221A66074B5A
:105A880001221A60064B4FF000629A6000BFBD46C3
:105A980080BC7047004402587FEDF6EA0881005147
:105AA80000ED00E0DFF834D0002103E00C4B5B5838
:105AB800435004310B480C4B42189A42F6D30B4A18
:105AC80002E0002342F8043B094B9A42F9D3FFF75E
